{
  "address": "0x2a4862CF33A44a7438CC49dd1442B65f4b6E951e",
  "abi": [
    {
      "inputs": [
        {
          "internalType": "string[]",
          "name": "_generalUris",
          "type": "string[]"
        },
        {
          "internalType": "address",
          "name": "_beneficiary1",
          "type": "address"
        },
        {
          "internalType": "address",
          "name": "_beneficiary2",
          "type": "address"
        },
        {
          "internalType": "uint256",
          "name": "_tokenPrice",
          "type": "uint256"
        },
        {
          "internalType": "uint256",
          "name": "_updatePrice",
          "type": "uint256"
        },
        {
          "internalType": "address",
          "name": "_priceFeed",
          "type": "address"
        },
        {
          "internalType": "address",
          "name": "_vrfCoordinator",
          "type": "address"
        },
        {
          "internalType": "uint64",
          "name": "_vrfSubscriptionId",
          "type": "uint64"
        },
        {
          "internalType": "bytes32",
          "name": "_keyHash",
          "type": "bytes32"
        },
        {
          "internalType": "uint16",
          "name": "_requestConfirmations",
          "type": "uint16"
        },
        {
          "internalType": "uint32",
          "name": "_callbackGasLimit",
          "type": "uint32"
        },
        {
          "internalType": "address",
          "name": "_linkToken",
          "type": "address"
        },
        {
          "internalType": "address",
          "name": "_weth",
          "type": "address"
        },
        {
          "internalType": "address",
          "name": "_uniswapRouter",
          "type": "address"
        },
        {
          "internalType": "address",
          "name": "_automationRegistry",
          "type": "address"
        },
        {
          "internalType": "address",
          "name": "_functionsRouter",
          "type": "address"
        },
        {
          "internalType": "uint64",
          "name": "_functionsSubscriptionId",
          "type": "uint64"
        },
        {
          "internalType": "uint32",
          "name": "_gasLimit",
          "type": "uint32"
        },
        {
          "internalType": "bytes32",
          "name": "_donID",
          "type": "bytes32"
        }
      ],
      "stateMutability": "nonpayable",
      "type": "constructor"
    },
    {
      "inputs": [],
      "name": "CallerIsNotTokenOwner",
      "type": "error"
    },
    {
      "inputs": [
        {
          "internalType": "address",
          "name": "sender",
          "type": "address"
        },
        {
          "internalType": "uint256",
          "name": "tokenId",
          "type": "uint256"
        },
        {
          "internalType": "address",
          "name": "owner",
          "type": "address"
        }
      ],
      "name": "ERC721IncorrectOwner",
      "type": "error"
    },
    {
      "inputs": [
        {
          "internalType": "address",
          "name": "operator",
          "type": "address"
        },
        {
          "internalType": "uint256",
          "name": "tokenId",
          "type": "uint256"
        }
      ],
      "name": "ERC721InsufficientApproval",
      "type": "error"
    },
    {
      "inputs": [
        {
          "internalType": "address",
          "name": "approver",
          "type": "address"
        }
      ],
      "name": "ERC721InvalidApprover",
      "type": "error"
    },
    {
      "inputs": [
        {
          "internalType": "address",
          "name": "operator",
          "type": "address"
        }
      ],
      "name": "ERC721InvalidOperator",
      "type": "error"
    },
    {
      "inputs": [
        {
          "internalType": "address",
          "name": "owner",
          "type": "address"
        }
      ],
      "name": "ERC721InvalidOwner",
      "type": "error"
    },
    {
      "inputs": [
        {
          "internalType": "address",
          "name": "receiver",
          "type": "address"
        }
      ],
      "name": "ERC721InvalidReceiver",
      "type": "error"
    },
    {
      "inputs": [
        {
          "internalType": "address",
          "name": "sender",
          "type": "address"
        }
      ],
      "name": "ERC721InvalidSender",
      "type": "error"
    },
    {
      "inputs": [
        {
          "internalType": "uint256",
          "name": "tokenId",
          "type": "uint256"
        }
      ],
      "name": "ERC721NonexistentToken",
      "type": "error"
    },
    {
      "inputs": [],
      "name": "EmptyArgs",
      "type": "error"
    },
    {
      "inputs": [],
      "name": "EmptySource",
      "type": "error"
    },
    {
      "inputs": [],
      "name": "InsufficientEth",
      "type": "error"
    },
    {
      "inputs": [],
      "name": "NoInlineSecrets",
      "type": "error"
    },
    {
      "inputs": [],
      "name": "NotBeneficiaryAddress",
      "type": "error"
    },
    {
      "inputs": [
        {
          "internalType": "address",
          "name": "have",
          "type": "address"
        },
        {
          "internalType": "address",
          "name": "want",
          "type": "address"
        }
      ],
      "name": "OnlyCoordinatorCanFulfill",
      "type": "error"
    },
    {
      "inputs": [],
      "name": "OnlyRouterCanFulfill",
      "type": "error"
    },
    {
      "inputs": [
        {
          "internalType": "address",
          "name": "owner",
          "type": "address"
        }
      ],
      "name": "OwnableInvalidOwner",
      "type": "error"
    },
    {
      "inputs": [
        {
          "internalType": "address",
          "name": "account",
          "type": "address"
        }
      ],
      "name": "OwnableUnauthorizedAccount",
      "type": "error"
    },
    {
      "inputs": [],
      "name": "TokenDoesNotExist",
      "type": "error"
    },
    {
      "inputs": [],
      "name": "TransferFailed",
      "type": "error"
    },
    {
      "anonymous": false,
      "inputs": [
        {
          "indexed": true,
          "internalType": "address",
          "name": "owner",
          "type": "address"
        },
        {
          "indexed": true,
          "internalType": "address",
          "name": "approved",
          "type": "address"
        },
        {
          "indexed": true,
          "internalType": "uint256",
          "name": "tokenId",
          "type": "uint256"
        }
      ],
      "name": "Approval",
      "type": "event"
    },
    {
      "anonymous": false,
      "inputs": [
        {
          "indexed": true,
          "internalType": "address",
          "name": "owner",
          "type": "address"
        },
        {
          "indexed": true,
          "internalType": "address",
          "name": "operator",
          "type": "address"
        },
        {
          "indexed": false,
          "internalType": "bool",
          "name": "approved",
          "type": "bool"
        }
      ],
      "name": "ApprovalForAll",
      "type": "event"
    },
    {
      "anonymous": false,
      "inputs": [
        {
          "indexed": false,
          "internalType": "uint256",
          "name": "requestId",
          "type": "uint256"
        },
        {
          "indexed": true,
          "internalType": "address",
          "name": "requester",
          "type": "address"
        }
      ],
      "name": "MintRequested",
      "type": "event"
    },
    {
      "anonymous": false,
      "inputs": [
        {
          "indexed": true,
          "internalType": "address",
          "name": "owner",
          "type": "address"
        },
        {
          "indexed": true,
          "internalType": "uint256",
          "name": "tokenId",
          "type": "uint256"
        },
        {
          "indexed": true,
          "internalType": "uint256",
          "name": "generalId",
          "type": "uint256"
        }
      ],
      "name": "NftMinted",
      "type": "event"
    },
    {
      "anonymous": false,
      "inputs": [
        {
          "indexed": true,
          "internalType": "address",
          "name": "previousOwner",
          "type": "address"
        },
        {
          "indexed": true,
          "internalType": "address",
          "name": "newOwner",
          "type": "address"
        }
      ],
      "name": "OwnershipTransferred",
      "type": "event"
    },
    {
      "anonymous": false,
      "inputs": [
        {
          "indexed": true,
          "internalType": "bytes32",
          "name": "id",
          "type": "bytes32"
        }
      ],
      "name": "RequestFulfilled",
      "type": "event"
    },
    {
      "anonymous": false,
      "inputs": [
        {
          "indexed": true,
          "internalType": "bytes32",
          "name": "id",
          "type": "bytes32"
        }
      ],
      "name": "RequestSent",
      "type": "event"
    },
    {
      "anonymous": false,
      "inputs": [
        {
          "indexed": true,
          "internalType": "address",
          "name": "from",
          "type": "address"
        },
        {
          "indexed": true,
          "internalType": "address",
          "name": "to",
          "type": "address"
        },
        {
          "indexed": true,
          "internalType": "uint256",
          "name": "tokenId",
          "type": "uint256"
        }
      ],
      "name": "Transfer",
      "type": "event"
    },
    {
      "inputs": [
        {
          "internalType": "string[]",
          "name": "_tokenUris",
          "type": "string[]"
        }
      ],
      "name": "addTokenUri",
      "outputs": [],
      "stateMutability": "nonpayable",
      "type": "function"
    },
    {
      "inputs": [
        {
          "internalType": "address",
          "name": "to",
          "type": "address"
        },
        {
          "internalType": "uint256",
          "name": "tokenId",
          "type": "uint256"
        }
      ],
      "name": "approve",
      "outputs": [],
      "stateMutability": "nonpayable",
      "type": "function"
    },
    {
      "inputs": [],
      "name": "automationRegistry",
      "outputs": [
        {
          "internalType": "address",
          "name": "",
          "type": "address"
        }
      ],
      "stateMutability": "view",
      "type": "function"
    },
    {
      "inputs": [],
      "name": "automationSubscriptionId",
      "outputs": [
        {
          "internalType": "uint256",
          "name": "",
          "type": "uint256"
        }
      ],
      "stateMutability": "view",
      "type": "function"
    },
    {
      "inputs": [
        {
          "internalType": "address",
          "name": "owner",
          "type": "address"
        }
      ],
      "name": "balanceOf",
      "outputs": [
        {
          "internalType": "uint256",
          "name": "",
          "type": "uint256"
        }
      ],
      "stateMutability": "view",
      "type": "function"
    },
    {
      "inputs": [],
      "name": "callbackGasLimit",
      "outputs": [
        {
          "internalType": "uint32",
          "name": "",
          "type": "uint32"
        }
      ],
      "stateMutability": "view",
      "type": "function"
    },
    {
      "inputs": [
        {
          "internalType": "address",
          "name": "_newBeneficiary",
          "type": "address"
        }
      ],
      "name": "changeBeneficiary",
      "outputs": [],
      "stateMutability": "nonpayable",
      "type": "function"
    },
    {
      "inputs": [
        {
          "internalType": "bytes",
          "name": "",
          "type": "bytes"
        }
      ],
      "name": "checkUpkeep",
      "outputs": [
        {
          "internalType": "bool",
          "name": "upkeepNeeded",
          "type": "bool"
        },
        {
          "internalType": "bytes",
          "name": "",
          "type": "bytes"
        }
      ],
      "stateMutability": "view",
      "type": "function"
    },
    {
      "inputs": [],
      "name": "distributeTokens",
      "outputs": [],
      "stateMutability": "nonpayable",
      "type": "function"
    },
    {
      "inputs": [],
      "name": "donID",
      "outputs": [
        {
          "internalType": "bytes32",
          "name": "",
          "type": "bytes32"
        }
      ],
      "stateMutability": "view",
      "type": "function"
    },
    {
      "inputs": [
        {
          "internalType": "uint256",
          "name": "functionsRequestId",
          "type": "uint256"
        }
      ],
      "name": "functionsRequests",
      "outputs": [
        {
          "internalType": "uint256",
          "name": "requesterTokenId",
          "type": "uint256"
        }
      ],
      "stateMutability": "view",
      "type": "function"
    },
    {
      "inputs": [],
      "name": "functionsRouter",
      "outputs": [
        {
          "internalType": "address",
          "name": "",
          "type": "address"
        }
      ],
      "stateMutability": "view",
      "type": "function"
    },
    {
      "inputs": [],
      "name": "functionsSubscriptionId",
      "outputs": [
        {
          "internalType": "uint64",
          "name": "",
          "type": "uint64"
        }
      ],
      "stateMutability": "view",
      "type": "function"
    },
    {
      "inputs": [],
      "name": "gasLimit",
      "outputs": [
        {
          "internalType": "uint32",
          "name": "",
          "type": "uint32"
        }
      ],
      "stateMutability": "view",
      "type": "function"
    },
    {
      "inputs": [
        {
          "internalType": "uint256",
          "name": "",
          "type": "uint256"
        }
      ],
      "name": "generalUris",
      "outputs": [
        {
          "internalType": "string",
          "name": "",
          "type": "string"
        }
      ],
      "stateMutability": "view",
      "type": "function"
    },
    {
      "inputs": [
        {
          "internalType": "address",
          "name": "_tokenIn",
          "type": "address"
        },
        {
          "internalType": "address",
          "name": "_tokenOut",
          "type": "address"
        },
        {
          "internalType": "uint256",
          "name": "_amountIn",
          "type": "uint256"
        }
      ],
      "name": "getAmountOutMin",
      "outputs": [
        {
          "internalType": "uint256",
          "name": "",
          "type": "uint256"
        }
      ],
      "stateMutability": "view",
      "type": "function"
    },
    {
      "inputs": [
        {
          "internalType": "uint256",
          "name": "tokenId",
          "type": "uint256"
        }
      ],
      "name": "getApproved",
      "outputs": [
        {
          "internalType": "address",
          "name": "",
          "type": "address"
        }
      ],
      "stateMutability": "view",
      "type": "function"
    },
    {
      "inputs": [],
      "name": "getGeneralUris",
      "outputs": [
        {
          "internalType": "string[]",
          "name": "",
          "type": "string[]"
        }
      ],
      "stateMutability": "view",
      "type": "function"
    },
    {
      "inputs": [
        {
          "internalType": "uint256",
          "name": "_amountInGas",
          "type": "uint256"
        }
      ],
      "name": "getPrice",
      "outputs": [
        {
          "internalType": "uint256",
          "name": "",
          "type": "uint256"
        }
      ],
      "stateMutability": "view",
      "type": "function"
    },
    {
      "inputs": [
        {
          "internalType": "address",
          "name": "_beneficiary",
          "type": "address"
        }
      ],
      "name": "getProceeds",
      "outputs": [
        {
          "internalType": "uint256",
          "name": "",
          "type": "uint256"
        }
      ],
      "stateMutability": "view",
      "type": "function"
    },
    {
      "inputs": [],
      "name": "getTokenCounter",
      "outputs": [
        {
          "internalType": "uint256",
          "name": "",
          "type": "uint256"
        }
      ],
      "stateMutability": "view",
      "type": "function"
    },
    {
      "inputs": [],
      "name": "getTokenPriceInEth",
      "outputs": [
        {
          "internalType": "uint256",
          "name": "",
          "type": "uint256"
        }
      ],
      "stateMutability": "view",
      "type": "function"
    },
    {
      "inputs": [],
      "name": "getUpdatePriceInEth",
      "outputs": [
        {
          "internalType": "uint256",
          "name": "",
          "type": "uint256"
        }
      ],
      "stateMutability": "view",
      "type": "function"
    },
    {
      "inputs": [
        {
          "internalType": "bytes32",
          "name": "requestId",
          "type": "bytes32"
        },
        {
          "internalType": "bytes",
          "name": "response",
          "type": "bytes"
        },
        {
          "internalType": "bytes",
          "name": "err",
          "type": "bytes"
        }
      ],
      "name": "handleOracleFulfillment",
      "outputs": [],
      "stateMutability": "nonpayable",
      "type": "function"
    },
    {
      "inputs": [
        {
          "internalType": "address",
          "name": "owner",
          "type": "address"
        },
        {
          "internalType": "address",
          "name": "operator",
          "type": "address"
        }
      ],
      "name": "isApprovedForAll",
      "outputs": [
        {
          "internalType": "bool",
          "name": "",
          "type": "bool"
        }
      ],
      "stateMutability": "view",
      "type": "function"
    },
    {
      "inputs": [],
      "name": "keyHash",
      "outputs": [
        {
          "internalType": "bytes32",
          "name": "",
          "type": "bytes32"
        }
      ],
      "stateMutability": "view",
      "type": "function"
    },
    {
      "inputs": [],
      "name": "lastError",
      "outputs": [
        {
          "internalType": "bytes",
          "name": "",
          "type": "bytes"
        }
      ],
      "stateMutability": "view",
      "type": "function"
    },
    {
      "inputs": [],
      "name": "lastResponse",
      "outputs": [
        {
          "internalType": "bytes",
          "name": "",
          "type": "bytes"
        }
      ],
      "stateMutability": "view",
      "type": "function"
    },
    {
      "inputs": [],
      "name": "linkToken",
      "outputs": [
        {
          "internalType": "contract LinkTokenInterface",
          "name": "",
          "type": "address"
        }
      ],
      "stateMutability": "view",
      "type": "function"
    },
    {
      "inputs": [],
      "name": "mintNft",
      "outputs": [],
      "stateMutability": "payable",
      "type": "function"
    },
    {
      "inputs": [],
      "name": "name",
      "outputs": [
        {
          "internalType": "string",
          "name": "",
          "type": "string"
        }
      ],
      "stateMutability": "view",
      "type": "function"
    },
    {
      "inputs": [],
      "name": "numWords",
      "outputs": [
        {
          "internalType": "uint32",
          "name": "",
          "type": "uint32"
        }
      ],
      "stateMutability": "view",
      "type": "function"
    },
    {
      "inputs": [],
      "name": "owner",
      "outputs": [
        {
          "internalType": "address",
          "name": "",
          "type": "address"
        }
      ],
      "stateMutability": "view",
      "type": "function"
    },
    {
      "inputs": [
        {
          "internalType": "uint256",
          "name": "tokenId",
          "type": "uint256"
        }
      ],
      "name": "ownerOf",
      "outputs": [
        {
          "internalType": "address",
          "name": "",
          "type": "address"
        }
      ],
      "stateMutability": "view",
      "type": "function"
    },
    {
      "inputs": [
        {
          "internalType": "bytes",
          "name": "",
          "type": "bytes"
        }
      ],
      "name": "performUpkeep",
      "outputs": [],
      "stateMutability": "nonpayable",
      "type": "function"
    },
    {
      "inputs": [],
      "name": "priceFeed",
      "outputs": [
        {
          "internalType": "contract AggregatorV3Interface",
          "name": "",
          "type": "address"
        }
      ],
      "stateMutability": "view",
      "type": "function"
    },
    {
      "inputs": [
        {
          "internalType": "uint256",
          "name": "requestId",
          "type": "uint256"
        },
        {
          "internalType": "uint256[]",
          "name": "randomWords",
          "type": "uint256[]"
        }
      ],
      "name": "rawFulfillRandomWords",
      "outputs": [],
      "stateMutability": "nonpayable",
      "type": "function"
    },
    {
      "inputs": [],
      "name": "renounceOwnership",
      "outputs": [],
      "stateMutability": "nonpayable",
      "type": "function"
    },
    {
      "inputs": [],
      "name": "requestConfirmations",
      "outputs": [
        {
          "internalType": "uint16",
          "name": "",
          "type": "uint16"
        }
      ],
      "stateMutability": "view",
      "type": "function"
    },
    {
      "inputs": [
        {
          "internalType": "address",
          "name": "from",
          "type": "address"
        },
        {
          "internalType": "address",
          "name": "to",
          "type": "address"
        },
        {
          "internalType": "uint256",
          "name": "tokenId",
          "type": "uint256"
        }
      ],
      "name": "safeTransferFrom",
      "outputs": [],
      "stateMutability": "nonpayable",
      "type": "function"
    },
    {
      "inputs": [
        {
          "internalType": "address",
          "name": "from",
          "type": "address"
        },
        {
          "internalType": "address",
          "name": "to",
          "type": "address"
        },
        {
          "internalType": "uint256",
          "name": "tokenId",
          "type": "uint256"
        },
        {
          "internalType": "bytes",
          "name": "data",
          "type": "bytes"
        }
      ],
      "name": "safeTransferFrom",
      "outputs": [],
      "stateMutability": "nonpayable",
      "type": "function"
    },
    {
      "inputs": [
        {
          "internalType": "address",
          "name": "operator",
          "type": "address"
        },
        {
          "internalType": "bool",
          "name": "approved",
          "type": "bool"
        }
      ],
      "name": "setApprovalForAll",
      "outputs": [],
      "stateMutability": "nonpayable",
      "type": "function"
    },
    {
      "inputs": [
        {
          "internalType": "uint256",
          "name": "_automationSubscriptionId",
          "type": "uint256"
        }
      ],
      "name": "setAutomation",
      "outputs": [],
      "stateMutability": "nonpayable",
      "type": "function"
    },
    {
      "inputs": [],
      "name": "source",
      "outputs": [
        {
          "internalType": "string",
          "name": "",
          "type": "string"
        }
      ],
      "stateMutability": "view",
      "type": "function"
    },
    {
      "inputs": [
        {
          "internalType": "bytes4",
          "name": "interfaceId",
          "type": "bytes4"
        }
      ],
      "name": "supportsInterface",
      "outputs": [
        {
          "internalType": "bool",
          "name": "",
          "type": "bool"
        }
      ],
      "stateMutability": "view",
      "type": "function"
    },
    {
      "inputs": [],
      "name": "swapTokens",
      "outputs": [],
      "stateMutability": "nonpayable",
      "type": "function"
    },
    {
      "inputs": [],
      "name": "symbol",
      "outputs": [
        {
          "internalType": "string",
          "name": "",
          "type": "string"
        }
      ],
      "stateMutability": "view",
      "type": "function"
    },
    {
      "inputs": [],
      "name": "tokenPrice",
      "outputs": [
        {
          "internalType": "uint256",
          "name": "",
          "type": "uint256"
        }
      ],
      "stateMutability": "view",
      "type": "function"
    },
    {
      "inputs": [
        {
          "internalType": "uint256",
          "name": "_tokenId",
          "type": "uint256"
        }
      ],
      "name": "tokenURI",
      "outputs": [
        {
          "internalType": "string",
          "name": "",
          "type": "string"
        }
      ],
      "stateMutability": "view",
      "type": "function"
    },
    {
      "inputs": [
        {
          "internalType": "uint256",
          "name": "_amount",
          "type": "uint256"
        }
      ],
      "name": "topUpAutomationSubscription",
      "outputs": [],
      "stateMutability": "nonpayable",
      "type": "function"
    },
    {
      "inputs": [
        {
          "internalType": "uint256",
          "name": "_amount",
          "type": "uint256"
        }
      ],
      "name": "topUpFunctionsSubscription",
      "outputs": [],
      "stateMutability": "nonpayable",
      "type": "function"
    },
    {
      "inputs": [
        {
          "internalType": "uint256",
          "name": "_amount",
          "type": "uint256"
        }
      ],
      "name": "topUpVRFSubscription",
      "outputs": [],
      "stateMutability": "nonpayable",
      "type": "function"
    },
    {
      "inputs": [
        {
          "internalType": "address",
          "name": "from",
          "type": "address"
        },
        {
          "internalType": "address",
          "name": "to",
          "type": "address"
        },
        {
          "internalType": "uint256",
          "name": "tokenId",
          "type": "uint256"
        }
      ],
      "name": "transferFrom",
      "outputs": [],
      "stateMutability": "nonpayable",
      "type": "function"
    },
    {
      "inputs": [
        {
          "internalType": "address",
          "name": "newOwner",
          "type": "address"
        }
      ],
      "name": "transferOwnership",
      "outputs": [],
      "stateMutability": "nonpayable",
      "type": "function"
    },
    {
      "inputs": [],
      "name": "uniswapRouter",
      "outputs": [
        {
          "internalType": "contract IUniswapV2Router",
          "name": "",
          "type": "address"
        }
      ],
      "stateMutability": "view",
      "type": "function"
    },
    {
      "inputs": [],
      "name": "updatePrice",
      "outputs": [
        {
          "internalType": "uint256",
          "name": "",
          "type": "uint256"
        }
      ],
      "stateMutability": "view",
      "type": "function"
    },
    {
      "inputs": [
        {
          "internalType": "uint256",
          "name": "_tokenId",
          "type": "uint256"
        },
        {
          "internalType": "string",
          "name": "_newUri",
          "type": "string"
        }
      ],
      "name": "updateUri",
      "outputs": [],
      "stateMutability": "payable",
      "type": "function"
    },
    {
      "inputs": [],
      "name": "vrfCoordinator",
      "outputs": [
        {
          "internalType": "contract VRFCoordinatorV2Interface",
          "name": "",
          "type": "address"
        }
      ],
      "stateMutability": "view",
      "type": "function"
    },
    {
      "inputs": [
        {
          "internalType": "uint256",
          "name": "vrfRequestId",
          "type": "uint256"
        }
      ],
      "name": "vrfRrequests",
      "outputs": [
        {
          "internalType": "address",
          "name": "vrfRequester",
          "type": "address"
        }
      ],
      "stateMutability": "view",
      "type": "function"
    },
    {
      "inputs": [],
      "name": "vrfSubscriptionId",
      "outputs": [
        {
          "internalType": "uint64",
          "name": "",
          "type": "uint64"
        }
      ],
      "stateMutability": "view",
      "type": "function"
    },
    {
      "inputs": [],
      "name": "weth",
      "outputs": [
        {
          "internalType": "contract IWETH",
          "name": "",
          "type": "address"
        }
      ],
      "stateMutability": "view",
      "type": "function"
    },
    {
      "inputs": [],
      "name": "withdrawFunds",
      "outputs": [],
      "stateMutability": "nonpayable",
      "type": "function"
    }
  ],
  "transactionHash": "0x9fa2b5584fde59ec9f2226bb697f6a8a37a91398480f2c5c1ef1208661c8c9e8",
  "args": [
    [
      "https://nftstorage.link/ipfs/bafybeifo2pwz53ac25zgw2d7tqs5hi6eorvotdq7sj4yf5oc5gkopny7tm/1.json",
      "https://nftstorage.link/ipfs/bafybeifo2pwz53ac25zgw2d7tqs5hi6eorvotdq7sj4yf5oc5gkopny7tm/2.json",
      "https://nftstorage.link/ipfs/bafybeifo2pwz53ac25zgw2d7tqs5hi6eorvotdq7sj4yf5oc5gkopny7tm/3.json",
      "https://nftstorage.link/ipfs/bafybeifo2pwz53ac25zgw2d7tqs5hi6eorvotdq7sj4yf5oc5gkopny7tm/4.json",
      "https://nftstorage.link/ipfs/bafybeifo2pwz53ac25zgw2d7tqs5hi6eorvotdq7sj4yf5oc5gkopny7tm/5.json",
      "https://nftstorage.link/ipfs/bafybeifo2pwz53ac25zgw2d7tqs5hi6eorvotdq7sj4yf5oc5gkopny7tm/6.json",
      "https://nftstorage.link/ipfs/bafybeifo2pwz53ac25zgw2d7tqs5hi6eorvotdq7sj4yf5oc5gkopny7tm/7.json",
      "https://nftstorage.link/ipfs/bafybeifo2pwz53ac25zgw2d7tqs5hi6eorvotdq7sj4yf5oc5gkopny7tm/8.json",
      "https://nftstorage.link/ipfs/bafybeifo2pwz53ac25zgw2d7tqs5hi6eorvotdq7sj4yf5oc5gkopny7tm/9.json",
      "https://nftstorage.link/ipfs/bafybeifo2pwz53ac25zgw2d7tqs5hi6eorvotdq7sj4yf5oc5gkopny7tm/10.json"
    ],
    "0xA7a44587F24bcA4513A8B5D9e8320B1B297efA1c",
    "0x0d087823f0B0E6d5d7dE7eD56636763eeCB52945",
    "20000000000000000000",
    "10000000000000000000",
    "0x694AA1769357215DE4FAC081bf1f309aDC325306",
    "0x8103B0A8A00be2DDC778e6e7eaa21791Cd364625",
    "7590",
    "0x474e34a077df58807dbe9c96d3c009b23b3c6d0cce433e59bbf5b34f823bc56c",
    "3",
    "1000000",
    "0x779877A7B0D9E8603169DdbD7836e478b4624789",
    "0x7b79995e5f793A07Bc00c21412e50Ecae098E7f9",
    "0xC532a74256D3Db42D0Bf7a0400fEFDbad7694008",
    "0x86EFBD0b6736Bed994962f9797049422A3A8E8Ad",
    "0xb83E47C2bC239B3bf370bc41e1459A34b41238D0",
    "1795",
    "300000",
    "0x66756e2d657468657265756d2d7365706f6c69612d3100000000000000000000"
  ],
  "numDeployments": 17,
  "solcInputHash": "6d846fa8c85c5cb7cfc8a1f26805c355",
  "bytecode": "0x6102806040523462000efe5762005ef080380380916200002282610280620013b7565b610280396102800161026061028082031262000efe57610280516001600160401b03811162000efe57610280019080601f8301121562000efe578151916001600160401b0383116200104a578260051b926200008a60405180610260526020860190620013b7565b610260515260208061026051019384610240528201019082821162000efe5760208101935b828510620012ec57620000c46102a0620013db565b620000d16102c0620013db565b6102e0516103005190620000e7610320620013db565b620000f4610340620013db565b9262000102610360620013f0565b926101006102800151956101206102800151806102205261ffff81160362000efe57620001316103c062001405565b61014052620001426103e0620013db565b6102005262000153610400620013db565b6101805262000164610420620013db565b6101e05262000175610440620013db565b6101605262000186610460620013db565b6101205262000197610480620013f0565b6101c052620001a86104a062001405565b6101a052610240610280015197604051620001c3816200139b565b601081526f4d61676973746572204d696c6974756d60801b602082015260405190620001ef826200139b565b60028252614d4d60f01b60208301523315620012d35760008054336001600160a01b0319821681178355916001600160a01b03909116907f8be0079c531659141344cd1fd0a4f28419497f9722a3daafe3b4186f6b6457e09080a38051906001600160401b0382116200104a5781906200026b60015462001417565b601f811162001291575b50602090601f8311600114620012135760009262001207575b50508160011b916000199060031b1c1916176001555b8051906001600160401b0382116200104a578190620002c560025462001417565b601f8111620011c5575b50602090601f831160011462001147576000926200113b575b50508160011b916000199060031b1c1916176002555b6080879052610120516001600160a01b031660a052600f805463ffffffff60301b191666010000000000001790556017546200033a9062001417565b601f8111620010ec575b506108b1601790815560009081527f636f6e7374205b6f726967696e616c5572692c206e65775572695d203d20617260008051602062005ed0833981519152557f67733b6c657420697356616c6964203d20303b636f6e7374206d616b654874747fc624b66cc0138b8fabc209247f72d758e1cf3343756d543badbf24212bed8c16557f7052657175657374203d206173796e63202875726929203d3e207b636f6e73747fc624b66cc0138b8fabc209247f72d758e1cf3343756d543badbf24212bed8c17557f20726573706f6e7365203d2061776169742046756e6374696f6e732e6d616b657fc624b66cc0138b8fabc209247f72d758e1cf3343756d543badbf24212bed8c18557f4874747052657175657374287b2075726c3a20757269207d293b6966202872657fc624b66cc0138b8fabc209247f72d758e1cf3343756d543badbf24212bed8c19557f73706f6e73652e6572726f7229207b636f6e736f6c652e6572726f72287265737fc624b66cc0138b8fabc209247f72d758e1cf3343756d543badbf24212bed8c1a557f706f6e73652e6572726f72293b7468726f77204572726f722860247b7572697d7fc624b66cc0138b8fabc209247f72d758e1cf3343756d543badbf24212bed8c1b557f204170692052657175657374206661696c656460293b7d72657475726e2072657fc624b66cc0138b8fabc209247f72d758e1cf3343756d543badbf24212bed8c1c557f73706f6e73652e646174613b7d3b636f6e7374206f726967696e616c446174617fc624b66cc0138b8fabc209247f72d758e1cf3343756d543badbf24212bed8c1d557f203d206177616974206d616b654874747052657175657374286f726967696e617fc624b66cc0138b8fabc209247f72d758e1cf3343756d543badbf24212bed8c1e557f6c557269293b636f6e7374206e657744617461203d206177616974206d616b657fc624b66cc0138b8fabc209247f72d758e1cf3343756d543badbf24212bed8c1f557f4874747052657175657374286e6577557269293b636f6e736f6c652e6c6f67287fc624b66cc0138b8fabc209247f72d758e1cf3343756d543badbf24212bed8c20557f274f726967696e616c2041504920726573706f6e736520646174613a272c204a7fc624b66cc0138b8fabc209247f72d758e1cf3343756d543badbf24212bed8c21557f534f4e2e737472696e67696679286f726967696e616c446174612c206e756c6c7fc624b66cc0138b8fabc209247f72d758e1cf3343756d543badbf24212bed8c22557f2c203229293b636f6e736f6c652e6c6f6728274e65772041504920726573706f7fc624b66cc0138b8fabc209247f72d758e1cf3343756d543badbf24212bed8c23557f6e736520646174613a272c204a534f4e2e737472696e67696679286e657744617fc624b66cc0138b8fabc209247f72d758e1cf3343756d543badbf24212bed8c24557f74612c206e756c6c2c203229293b636f6e737420636865636b417474726962757fc624b66cc0138b8fabc209247f72d758e1cf3343756d543badbf24212bed8c25557f746573203d202861747472312c20617474723229203d3e2061747472312e6c657fc624b66cc0138b8fabc209247f72d758e1cf3343756d543badbf24212bed8c26557f6e677468203d3d3d2061747472322e6c656e6774682026262061747472312e657fc624b66cc0138b8fabc209247f72d758e1cf3343756d543badbf24212bed8c27557f766572792828612c206929203d3e20612e74726169745f74797065203d3d3d207fc624b66cc0138b8fabc209247f72d758e1cf3343756d543badbf24212bed8c28557f61747472325b695d2e74726169745f747970652026262028612e76616c7565207fc624b66cc0138b8fabc209247f72d758e1cf3343756d543badbf24212bed8c29557f3c3d2031303020262620612e76616c7565203e3d203029293b696620284f626a7fc624b66cc0138b8fabc209247f72d758e1cf3343756d543badbf24212bed8c2a557f6563742e6b657973286f726967696e616c44617461292e6c656e677468203d3d7fc624b66cc0138b8fabc209247f72d758e1cf3343756d543badbf24212bed8c2b557f3d204f626a6563742e6b657973286e657744617461292e6c656e6774682026267fc624b66cc0138b8fabc209247f72d758e1cf3343756d543badbf24212bed8c2c557f6f726967696e616c446174612e6e616d65203d3d3d206e6577446174612e6e617fc624b66cc0138b8fabc209247f72d758e1cf3343756d543badbf24212bed8c2d557f6d652026266f726967696e616c446174612e7469746c65203d3d3d206e6577447fc624b66cc0138b8fabc209247f72d758e1cf3343756d543badbf24212bed8c2e557f6174612e7469746c652026266f726967696e616c446174612e646573637269707fc624b66cc0138b8fabc209247f72d758e1cf3343756d543badbf24212bed8c2f557f74696f6e203d3d3d206e6577446174612e6465736372697074696f6e2026266f7fc624b66cc0138b8fabc209247f72d758e1cf3343756d543badbf24212bed8c30557f726967696e616c446174612e696d616765203d3d3d206e6577446174612e696d7fc624b66cc0138b8fabc209247f72d758e1cf3343756d543badbf24212bed8c31557f616765202626636865636b41747472696275746573286f726967696e616c44617fc624b66cc0138b8fabc209247f72d758e1cf3343756d543badbf24212bed8c32557f74612e617474726962757465732c206e6577446174612e6174747269627574657fc624b66cc0138b8fabc209247f72d758e1cf3343756d543badbf24212bed8c33557f732929207b697356616c6964203d20313b7d636f6e73742072657475726e65647fc624b66cc0138b8fabc209247f72d758e1cf3343756d543badbf24212bed8c34557f56616c7565203d20697356616c6964203f206e6577557269203a2027696e76617fc624b66cc0138b8fabc209247f72d758e1cf3343756d543badbf24212bed8c35557f6c696420696e707574273b72657475726e2046756e6374696f6e732e656e636f7fc624b66cc0138b8fabc209247f72d758e1cf3343756d543badbf24212bed8c36557f6465537472696e672872657475726e656456616c7565293b00000000000000007fc624b66cc0138b8fabc209247f72d758e1cf3343756d543badbf24212bed8c375560075561026051516801000000000000000081116200104a576009548160095580821062001060575b50610240516009600090815260008051602062005e9083398151915292915b82821062000f18575050600a80546001600160a01b03199081166001600160a01b0395861617909155600b8054821695851695909517909455505060c09290925260e09290925291821661010052600d80546001600160e01b0319169483169490941760a09390931b600160a01b600160e01b031692909217909255600e92909255600f8054610220516101405165ffffffffffff1990921660109290921b65ffffffff0000169190911761ffff91909116179055610200516011805484169183169190911790556101e05160138054841691831691821790556101805160128054909416921691821790925560405163095ea7b360e01b815260048101929092526000196024830152602090829060449082906000905af1801562000f0c5762000ec8575b5061016051601480546001600160a01b03199081166001600160a01b039384161790915561012051601680549092169216919091179055601880546101a0516101c0516001600160601b03199092166001600160401b039290921691909117604091821b6bffffffff0000000000000000161790915560199190915551614a0290816200146e82396080518161255b015260a051818181610b8601526132bf015260c0518181816112d001528181611ba10152612048015260e05181818161063e0152818161156501526117500152610100518181816112930152818161152801528181611b3e0152612c660152f35b6020813d60201162000f03575b8162000ee460209383620013b7565b8101031262000efe57518015150362000efe578162000dd8565b600080fd5b3d915062000ed5565b6040513d6000823e3d90fd5b80518051906001600160401b0382116200104a5762000f38865462001417565b601f811162001008575b50602090601f831160011462000f9357928260019493602093869560009262000f87575b5050600019600383901b1c191690841b1787555b0194019101909262000cb2565b01519050388062000f66565b908660005260206000209160005b601f198516811062000fef575083602093600196938796938794601f1981161062000fd5575b505050811b01875562000f7a565b015160001960f88460031b161c1916905538808062000fc7565b9192602060018192868501518155019401920162000fa1565b6200103890876000526020600020601f850160051c810191602086106200103f575b601f0160051c019062001454565b8f62000f42565b90915081906200102a565b634e487b7160e01b600052604160045260246000fd5b600960005260008051602062005e90833981519152908282015b81830181106200108c57505062000c93565b806200109b6001925462001417565b80620010aa575b50016200107a565b601f81118314620010c25750600081555b8e620010a2565b600090828252620010e2601f60208420920160051c820185830162001454565b81835555620010bb565b60176000526200113490601f0160051c60008051602062005ed0833981519152017fc624b66cc0138b8fabc209247f72d758e1cf3343756d543badbf24212bed8c3862001454565b8962000344565b015190508b80620002e8565b60026000908152935060008051602062005e7083398151915291905b601f1984168510620011a9576001945083601f198116106200118f575b505050811b01600255620002fe565b015160001960f88460031b161c191690558b808062001180565b8181015183556020948501946001909301929091019062001163565b6002600052620012009060008051602062005e70833981519152601f850160051c810191602086106200103f57601f0160051c019062001454565b8c620002cf565b015190508c806200028e565b60016000908152935060008051602062005eb083398151915291905b601f198416851062001275576001945083601f198116106200125b575b505050811b01600155620002a4565b015160001960f88460031b161c191690558c80806200124c565b818101518355602094850194600190930192909101906200122f565b6001600052620012cc9060008051602062005eb0833981519152601f850160051c810191602086106200103f57601f0160051c019062001454565b8d62000275565b604051631e4fbdf760e01b815260006004820152602490fd5b84516001600160401b03811162000efe57820184603f8201121562000efe5760208101516001600160401b03811162001386576040519162001339601f8301601f191660200184620013b7565b818352866040838301011162000efe5760005b8281106200136f57505091816000602080958195010152815201940193620000af565b80604060209284010151828287010152016200134c565b60246000634e487b7160e01b81526041600452fd5b604081019081106001600160401b038211176200104a57604052565b601f909101601f19168101906001600160401b038211908210176200104a57604052565b51906001600160a01b038216820362000efe57565b51906001600160401b038216820362000efe57565b519063ffffffff8216820362000efe57565b90600182811c9216801562001449575b60208310146200143357565b634e487b7160e01b600052602260045260246000fd5b91607f169162001427565b81811062001460575050565b600081556001016200145456fe6080604052600436101561001257600080fd5b60003560e01c806301ffc9a7146103f757806305751204146103f257806306fdde03146103ed578063081812fc146103e8578063095ea7b3146103e35780630ca76175146103de57806312fc791c146103d95780631fe543e3146103d457806323b872dd146103cf57806324600fc3146103ca57806324f74697146103c557806329f0de3f146103c05780632b578c3d146103bb57806330cfeda9146103b65780633aab9274146103b15780633c50eec1146103ac5780633fc8cef3146103a757806342842e0e146103a25780634585e33b1461039d578063487125d51461039857806357970e93146103935780635dc228a01461038e57806361728f391461038957806362747e42146103845780636352211e1461037f57806366d63b2d1461037a578063673a7e281461037557806367e828bf146103705780636e02007d1461036b5780636e04ff0d146103665780636e74336b14610361578063705f876c1461035c57806370a0823114610357578063715018a614610352578063735de9f71461034d57806373d0022414610348578063741bef1a146103435780637ccfd7fc1461033e5780637ff9b5961461033957806381eb3d3d146103345780638da5cb5b1461032f57806395d89b411461032a57806399410739146103255780639ab1b48414610320578063a22cb4651461031b578063a3e56fa814610316578063af680da214610311578063b0fb162f1461030c578063b305ea7614610307578063b7b8012114610302578063b88d4fde146102fd578063bc83a52c146102f8578063c2229fea146102f3578063c87b56dd146102ee578063d58f05da146102e9578063dc070657146102e4578063e7572230146102df578063e985e9c5146102da578063ed647d21146102d5578063f0c9c688146102d0578063f2fde38b146102cb5763f68016b7146102c657600080fd5b612527565b612470565b61244f565b612424565b6123c2565b6123a4565b61226a565b612243565b6121d9565b612030565b612012565b611fc3565b611f23565b611eee565b611ecc565b611e5d565b611dcb565b611ced565b611cca565b611cae565b611c07565b611be0565b611bc4565b611b89565b611b62565b611b1e565b611b05565b611ade565b611a6c565b6119fb565b6119d3565b6119b5565b611911565b6118f3565b61184c565b611738565b61170c565b6116dd565b611636565b611618565b6115f1565b6115ca565b6114e1565b611431565b6113ad565b611386565b611365565b61124c565b611212565b6111f6565b61114f565b61103e565b610f84565b610f6d565b610eac565b610dc1565b610b2f565b6109f6565b61098b565b6108a8565b610603565b61042b565b7fffffffff0000000000000000000000000000000000000000000000000000000081160361042657565b600080fd5b346104265760206003193601126104265760207fffffffff0000000000000000000000000000000000000000000000000000000060043561046b816103fc565b167f80ac58cd0000000000000000000000000000000000000000000000000000000081149081156104d3575b81156104a9575b506040519015158152f35b7f01ffc9a7000000000000000000000000000000000000000000000000000000009150143861049e565b7f5b5e139f0000000000000000000000000000000000000000000000000000000081149150610497565b7f4e487b7100000000000000000000000000000000000000000000000000000000600052604160045260246000fd5b67ffffffffffffffff811161054057604052565b6104fd565b6040810190811067ffffffffffffffff82111761054057604052565b6060810190811067ffffffffffffffff82111761054057604052565b90601f601f19910116810190811067ffffffffffffffff82111761054057604052565b67ffffffffffffffff811161054057601f01601f191660200190565b81601f82011215610426578035906105d3826105a0565b926105e1604051948561057d565b8284526020838301011161042657816000926020809301838601378301015290565b60406003193601126104265760043567ffffffffffffffff602435818111610426576106339036906004016105bc565b61063c34612c30565b7f0000000000000000000000000000000000000000000000000000000000000000116107e05761066b83612a7b565b6001600160a01b03339116036107b657610724916106fa610714926106a261069d876000526008602052604060002090565b611831565b6106aa6131c7565b916106bc6106b6611773565b846136fa565b6106c4613211565b916106ce83612d2d565b526106d882612d2d565b506106e282612d3a565b526106ec81612d3a565b5080516107a6575b5061350f565b601854906019549263ffffffff8360401c16921690613245565b600052601a602052604060002090565b5561074661073a6012546001600160a01b031690565b6001600160a01b031690565b803b15610426576000600491604051928380927fd0e30db000000000000000000000000000000000000000000000000000000000825234905af180156107a15761078c57005b8061079961079f9261052c565b8061080a565b005b612b13565b6107b0908261373b565b386106f4565b60046040517f4143fbf9000000000000000000000000000000000000000000000000000000008152fd5b60046040517fa01a9df6000000000000000000000000000000000000000000000000000000008152fd5b600091031261042657565b906060519182815260005b8381106108405750601f19601f8460006020809697860101520116010190565b806080602092015182828501015201610820565b919082519283825260005b848110610880575050601f19601f8460006020809697860101520116010190565b60208183018101518483018201520161085f565b9060206108a5928181520190610854565b90565b346104265760008060031936011261098857604051908060018054916108cd83611065565b8086529282811690811561095e5750600114610904575b610900856108f48187038261057d565b60405191829182610894565b0390f35b92508083527fb10e2d527612073b26eecdfd717e6a320cf44b4afac2b0732d9fcbe2b7fa0cf65b8284106109465750505081016020016108f4826109006108e4565b8054602085870181019190915290930192810161092b565b869550610900969350602092506108f494915060ff191682840152151560051b82010192936108e4565b80fd5b34610426576020600319360112610426576004356109a881612a7b565b50600052600560205260206001600160a01b0360406000205416604051908152f35b600435906001600160a01b038216820361042657565b602435906001600160a01b038216820361042657565b3461042657604060031936011261042657610a0f6109ca565b60243590610a1c82612a7b565b33151580610b1c575b80610ade575b610aad578261079f93610a7a926001600160a01b0380861691167f8c5be1e5ebec7d5bd14f71427d1e84f3dd0314c0f7b2291e5b200ac8c7c3b925600080a46000526005602052604060002090565b906001600160a01b03167fffffffffffffffffffffffff0000000000000000000000000000000000000000825416179055565b6040517fa9fbf51f000000000000000000000000000000000000000000000000000000008152336004820152602490fd5b506001600160a01b038116600052600660205260ff610b14336040600020906001600160a01b0316600052602052604060002090565b541615610a2b565b50336001600160a01b0382161415610a25565b346104265760606003193601126104265767ffffffffffffffff60043560243582811161042657610b649036906004016105bc565b60443583811161042657610b7c9036906004016105bc565b6001600160a01b037f0000000000000000000000000000000000000000000000000000000000000000163303610d1757815193841161054057610bc984610bc4601b54611065565b612d85565b602093601f8111600114610c905780610bfe939495600091610c85575b506000198260011b9260031b1c191617601b55614256565b805180610c2e575b827f85e1543bf2f84fe80c6badbce3648c8539ad1df4d2b3d822938ca0538be727e6600080a2005b6020820120610c3b61433f565b6020815191012003610c4e575b80610c06565b610c7f90610c7a610c6984600052601a602052604060002090565b546000526008602052604060002090565b614378565b38610c48565b905084015138610be6565b601b600052601f1981167f3ad8aa4f87544323a9d1e5dd902f40c356527a7955687113db5f9a85ad579dc19060005b818110610cff575090610bfe949596836001949310610ce6575b5050811b01601b55614256565b86015160001960f88460031b161c191690553880610cd9565b85880151835560209788019760019093019201610cbf565b60046040517fc6829f83000000000000000000000000000000000000000000000000000000008152fd5b602080820190808352835180925260408301928160408460051b8301019501936000915b848310610d755750505050505090565b9091929394958480610db1837fffffffffffffffffffffffffffffffffffffffffffffffffffffffffffffffc086600196030187528a51610854565b9801930193019194939290610d65565b346104265760008060031936011261098857600990815490610de282610e94565b91604091610df28351948561057d565b818452601f19610e0183610e94565b01815b818110610e83575050805b828110610e23578351806109008782610d41565b610e7e908683528451610e6381610e5c81857f6e1540171b6c0c960b71a7020d9f60077f6af931a8bbf590da0223dacf75c7af016110b8565b038261057d565b610e6d8288612d5a565b52610e788187612d5a565b50612f64565b610e0f565b806060602080938901015201610e04565b67ffffffffffffffff81116105405760051b60200190565b346104265760406003193601126104265760243567ffffffffffffffff8111610426573660238201121561042657806004013590610ee982610e94565b90610ef7604051928361057d565b82825260209260248484019160051b8301019136831161042657602401905b828210610f295761079f8460043561254e565b81358152908401908401610f16565b6003196060910112610426576001600160a01b0390600435828116810361042657916024359081168103610426579060443590565b346104265761079f610f7e36610f38565b916126ab565b3461042657600080600319360112610988576001600160a01b0380600a5416331415908161102f575b5061100557338152600c60205280808080604081208181549155335af1610fd2612b1f565b5015610fdb5780f35b60046040517f90b8ec18000000000000000000000000000000000000000000000000000000008152fd5b60046040517fa48f1bef000000000000000000000000000000000000000000000000000000008152fd5b9050600b541633141538610fad565b3461042657600060031936011261042657602063ffffffff600f5460101c16604051908152f35b90600182811c921680156110ae575b602083101461107f57565b7f4e487b7100000000000000000000000000000000000000000000000000000000600052602260045260246000fd5b91607f1691611074565b90600092918054916110c983611065565b91828252600193848116908160001461112b57506001146110eb575b50505050565b90919394506000526020928360002092846000945b8386106111175750505050010190388080806110e5565b805485870183015294019385908201611100565b915050602094955060ff199193501683830152151560051b010190388080806110e5565b3461042657600080600319360112610988576040519080601c5461117281611065565b8085529160019180831690811561095e575060011461119b57610900856108f48187038261057d565b9250601c83527f0e4562a10381dec21b205ed72637e6b1b523bdd0e4d4d50af5cd23dd4500a2115b8284106111de5750505081016020016108f4826109006108e4565b805460208587018101919091529093019281016111c3565b346104265760206003193601126104265761079f60043561315e565b34610426576020600319360112610426576001600160a01b036112336109ca565b16600052600c6020526020604060002054604051908152f35b34610426576000600319360112610426576040517ffeaf968c00000000000000000000000000000000000000000000000000000000815260a0816004816001600160a01b037f0000000000000000000000000000000000000000000000000000000000000000165afa9081156107a157600091611332575b50670de0b6b3a76400007f000000000000000000000000000000000000000000000000000000000000000081810291811591830414171561132d5761131861131d9161131261090094612bc7565b90612c26565b612cf0565b6040519081529081906020820190565b612b98565b611353915060a03d811161135e575b61134b818361057d565b810190612b66565b5050509050386112c4565b503d611341565b3461042657602061137e61137836610f38565b91614715565b604051908152f35b346104265760006003193601126104265760206001600160a01b0360125416604051908152f35b34610426576113bb36610f38565b60405191602083019383851067ffffffffffffffff8611176105405761079f94604052600084526128d8565b9060206003198301126104265760043567ffffffffffffffff9283821161042657806023830112156104265781600401359384116104265760248483010111610426576024019190565b346104265761143f366113e7565b5050602460206001600160a01b0360125416604051928380927f70a082310000000000000000000000000000000000000000000000000000000082523060048301525afa80156107a15766470de4df820000916000916114b3575b5010156114a357005b6114ab6145b1565b61079f61484b565b6114d4915060203d81116114da575b6114cc818361057d565b810190612d1e565b3861149a565b503d6114c2565b34610426576000600319360112610426576040517ffeaf968c00000000000000000000000000000000000000000000000000000000815260a0816004816001600160a01b037f0000000000000000000000000000000000000000000000000000000000000000165afa9081156107a1576000916115a7575b50670de0b6b3a76400007f000000000000000000000000000000000000000000000000000000000000000081810291811591830414171561132d5761131861131d9161131261090094612bc7565b6115bf915060a03d811161135e5761134b818361057d565b505050905038611559565b346104265760006003193601126104265760206001600160a01b0360115416604051908152f35b346104265760006003193601126104265760206001600160a01b0360145416604051908152f35b34610426576000600319360112610426576020600e54604051908152f35b3461042657600080600319360112610988576040519080601b5461165981611065565b8085529160019180831690811561095e575060011461168257610900856108f48187038261057d565b9250601b83527f3ad8aa4f87544323a9d1e5dd902f40c356527a7955687113db5f9a85ad579dc15b8284106116c55750505081016020016108f4826109006108e4565b805460208587018101919091529093019281016116aa565b346104265760206003193601126104265760206116fb600435612a7b565b6001600160a01b0360405191168152f35b3461042657602060031936011261042657600435600052601a6020526020604060002054604051908152f35b346104265760006003193601126104265760206040517f00000000000000000000000000000000000000000000000000000000000000008152f35b604051906000826017549161178783611065565b8083529260019081811690811561180f57506001146117b0575b506117ae9250038361057d565b565b6017600090815291507fc624b66cc0138b8fabc209247f72d758e1cf3343756d543badbf24212bed8c155b8483106117f457506117ae9350508101602001386117a1565b81935090816020925483858a010152019101909185926117db565b602093506117ae95925060ff1991501682840152151560051b820101386117a1565b906117ae61184592604051938480926110b8565b038361057d565b346104265760008060031936011261098857604051908060175461186f81611065565b8085529160019180831690811561095e575060011461189857610900856108f48187038261057d565b9250601783527fc624b66cc0138b8fabc209247f72d758e1cf3343756d543badbf24212bed8c155b8284106118db5750505081016020016108f4826109006108e4565b805460208587018101919091529093019281016118c0565b34610426576000600319360112610426576020600754604051908152f35b346104265761191f366113e7565b5050602460206001600160a01b0360125416604051928380927f70a082310000000000000000000000000000000000000000000000000000000082523060048301525afa9081156107a157600091611997575b5066470de4df8200006040519110158152604060208201528061090060408201610815565b6119af915060203d81116114da576114cc818361057d565b38611972565b34610426576000600319360112610426576020601954604051908152f35b3461042657600060031936011261042657602067ffffffffffffffff60185416604051908152f35b34610426576020600319360112610426576001600160a01b03611a1c6109ca565b168015611a3b5760005260046020526020604060002054604051908152f35b60246040517f89c62b6400000000000000000000000000000000000000000000000000000000815260006004820152fd5b346104265760008060031936011261098857611a86612667565b806001600160a01b0381547fffffffffffffffffffffffff000000000000000000000000000000000000000081168355167f8be0079c531659141344cd1fd0a4f28419497f9722a3daafe3b4186f6b6457e08280a380f35b346104265760006003193601126104265760206001600160a01b0360135416604051908152f35b346104265760006003193601126104265761079f6145b1565b346104265760006003193601126104265760206040516001600160a01b037f0000000000000000000000000000000000000000000000000000000000000000168152f35b3461042657600060031936011261042657602063ffffffff600f5460301c16604051908152f35b346104265760006003193601126104265760206040517f00000000000000000000000000000000000000000000000000000000000000008152f35b346104265760206003193601126104265761079f60043561443e565b346104265760006003193601126104265760206001600160a01b0360005416604051908152f35b3461042657600080600319360112610988576040519080600254611c2a81611065565b8085529160019180831690811561095e5750600114611c5357610900856108f48187038261057d565b9250600283527f405787fa12a823e0f2b7631cc41b3ba8828b3321ca811111fa75cd3aa3bb5ace5b828410611c965750505081016020016108f4826109006108e4565b80546020858701810191909152909301928101611c7b565b346104265760206003193601126104265761079f6004356130a4565b346104265760006003193601126104265761079f61484b565b8015150361042657565b3461042657604060031936011261042657611d066109ca565b602435611d1281611ce3565b6001600160a01b038216918215611d9a57611d4d903360005260066020526040600020906001600160a01b0316600052602052604060002090565b60ff1981541660ff831515161790557f17307eab39ab6107e8899845ad3d59bd9653f200f220920489ca2b5937696c3160405180611d95339482919091602081019215159052565b0390a3005b602483604051907f5b08ba180000000000000000000000000000000000000000000000000000000082526004820152fd5b346104265760006003193601126104265760206001600160a01b03600d5416604051908152f35b7f4e487b7100000000000000000000000000000000000000000000000000000000600052603260045260246000fd5b600954811015611e585760096000527f6e1540171b6c0c960b71a7020d9f60077f6af931a8bbf590da0223dacf75c7af0190600090565b611df2565b346104265760206003193601126104265760043560095481101561042657610e5c611eb8610900926009600052604051928380927f6e1540171b6c0c960b71a7020d9f60077f6af931a8bbf590da0223dacf75c7af016110b8565b604051918291602083526020830190610854565b3461042657600060031936011261042657602061ffff600f5416604051908152f35b3461042657602060031936011261042657600435600052601060205260206001600160a01b0360406000205416604051908152f35b34610426576020806003193601126104265767ffffffffffffffff6004358181116104265736602382011215610426578060040135611f6181610e94565b92611f6f604051948561057d565b818452848401906024809360051b8501019336851161042657838101925b858410611f9d5761079f8761493c565b8335838111610426578891611fb883928836918701016105bc565b815201930192611f8d565b3461042657608060031936011261042657611fdc6109ca565b611fe46109e0565b6064359167ffffffffffffffff83116104265761200861079f9336906004016105bc565b91604435916128d8565b34610426576000600319360112610426576020601554604051908152f35b6000806003193601126109885761204634612c30565b7f0000000000000000000000000000000000000000000000000000000000000000116107e057600d54600e54600f546040517f5d3b1d30000000000000000000000000000000000000000000000000000000008152600481019290925267ffffffffffffffff60a084901c16602483015261ffff8116604483015263ffffffff601082901c8116606484015260309190911c16608482015290602090829060a490829086906001600160a01b03165af19081156107a15782916121bb575b5061211d33610a7a836000526010602052604060002090565b61213261073a6012546001600160a01b031690565b82813b1561098857600491604051928380927fd0e30db000000000000000000000000000000000000000000000000000000000825234905af180156107a1576121a8575b5060405190815233907f50b52942a273ce144f2cd4fcb4359ec4d21c0f4eb404e2c9d5fb3536f89948eb90602090a280f35b806107996121b59261052c565b38612176565b6121d3915060203d81116114da576114cc818361057d565b38612104565b3461042657602060031936011261042657600435600754811015612219576000526008602052610900610e5c611eb86040600020604051928380926110b8565b60046040517fceea21b6000000000000000000000000000000000000000000000000000000008152fd5b346104265760006003193601126104265760206001600160a01b0360165416604051908152f35b34610426576020600319360112610426576122836109ca565b6001600160a01b0380600a541633149081159081612395575b50611005571561232c5761079f906122c7336001600160a01b0316600052600c602052604060002090565b54336000908152600c60205260408082208290556001600160a01b038416825290206122f6905b918254612d11565b90556001600160a01b03167fffffffffffffffffffffffff0000000000000000000000000000000000000000600a541617600a55565b336000908152600c60205260408082208054908390556001600160a01b0384168352912061079f92919061235f906122ee565b90556001600160a01b03167fffffffffffffffffffffffff0000000000000000000000000000000000000000600b541617600b55565b9050600b54163314153861229c565b3461042657602060031936011261042657602061137e600435612c30565b3461042657604060031936011261042657602060ff6124186123e26109ca565b6001600160a01b036123f26109e0565b9116600052600684526040600020906001600160a01b0316600052602052604060002090565b54166040519015158152f35b3461042657600060031936011261042657602067ffffffffffffffff600d5460a01c16604051908152f35b3461042657602060031936011261042657612468612667565b600435601555005b34610426576020600319360112610426576124896109ca565b612491612667565b6001600160a01b0380911680156124f6576000918254827fffffffffffffffffffffffff00000000000000000000000000000000000000008216178455167f8be0079c531659141344cd1fd0a4f28419497f9722a3daafe3b4186f6b6457e08380a380f35b60246040517f1e4fbdf700000000000000000000000000000000000000000000000000000000815260006004820152fd5b3461042657600060031936011261042657602060185463ffffffff6040519160401c168152f35b906001600160a01b0390817f0000000000000000000000000000000000000000000000000000000000000000168033036126305750805115611e5857602001519060095492831561262b576117ae9361262693069060005260106020526125c160406000206001600160a01b0390541690565b6125cd60075482612f73565b6125f56125d983611e21565b506125f06007546000526008602052604060002090565b612e76565b600754928391167ffc612aad4e70fb3e1d4832d8c65f92e4024aa87f809d131267a79bceee757f33600080a4612f64565b600755565b612bf7565b604490604051907f1cf993f40000000000000000000000000000000000000000000000000000000082523360048301526024820152fd5b6001600160a01b0360005416330361267b57565b60246040517f118cdaa7000000000000000000000000000000000000000000000000000000008152336004820152fd5b90916001600160a01b038084169283156128a757826000948186526003602052604096848888205416968791331515806127c3575b50906127457fddf252ad1be2c89b69c2b068fc378daa952ba7f163c4a11628f55a4df523b3ef9284612790575b61272a816001600160a01b03166000526004602052604060002090565b60018154019055610a7a876000526003602052604060002090565b80a416928383036127565750505050565b6064945051927f64283d7b000000000000000000000000000000000000000000000000000000008452600484015260248301526044820152fd5b61279987612a3f565b6127b6856001600160a01b03166000526004602052604060002090565b600019815401905561270d565b91939450915080612850575b156127df578592918791386126e0565b8786886128185790517f7e2732890000000000000000000000000000000000000000000000000000000081526004810191909152602490fd5b90517f177e802f0000000000000000000000000000000000000000000000000000000081523360048201526024810191909152604490fd5b503387148015612876575b806127cf5750858252600560205233858984205416146127cf565b50868252600660205260ff6128a0338a8520906001600160a01b0316600052602052604060002090565b541661285b565b60246040517f64a0ae9200000000000000000000000000000000000000000000000000000000815260006004820152fd5b919290926128e78185856126ab565b833b6128f35750505050565b6129319160209160405193849283927f150b7a0200000000000000000000000000000000000000000000000000000000978885523360048601612ae4565b038160006001600160a01b0388165af160009181612a0f575b506129a25782612958612b1f565b805191908261299b576040517f64a0ae920000000000000000000000000000000000000000000000000000000081526001600160a01b0383166004820152602490fd5b9050602001fd5b7fffffffff0000000000000000000000000000000000000000000000000000000016036129d35750388080806110e5565b6040517f64a0ae920000000000000000000000000000000000000000000000000000000081526001600160a01b03919091166004820152602490fd5b612a3191925060203d8111612a38575b612a29818361057d565b810190612acf565b903861294a565b503d612a1f565b612a53906000526005602052604060002090565b7fffffffffffffffffffffffff00000000000000000000000000000000000000008154169055565b8060005260036020526001600160a01b0360406000205416908115612a9e575090565b602490604051907f7e2732890000000000000000000000000000000000000000000000000000000082526004820152fd5b9081602091031261042657516108a5816103fc565b90926108a594936080936001600160a01b03809216845216602083015260408201528160608201520190610854565b6040513d6000823e3d90fd5b3d15612b4a573d90612b30826105a0565b91612b3e604051938461057d565b82523d6000602084013e565b606090565b519069ffffffffffffffffffff8216820361042657565b908160a091031261042657612b7a81612b4f565b916020820151916040810151916108a5608060608401519301612b4f565b7f4e487b7100000000000000000000000000000000000000000000000000000000600052601160045260246000fd5b906402540be4009182810292818404149015171561132d57565b908160011b918083046002149015171561132d57565b7f4e487b7100000000000000000000000000000000000000000000000000000000600052601260045260246000fd5b811561262b570490565b6040517ffeaf968c00000000000000000000000000000000000000000000000000000000815260a0816004816001600160a01b037f0000000000000000000000000000000000000000000000000000000000000000165afa9081156107a157600091612ccd575b506402540be4008082029180830482148115171561132d5783020291818304149015171561132d57670de0b6b3a7640000900490565b612ce5915060a03d811161135e5761134b818361057d565b505050905038612c97565b90655af3107a4000820180921161132d57565b906020820180921161132d57565b9190820180921161132d57565b90816020910312610426575190565b805115611e585760200190565b805160011015611e585760400190565b805160021015611e585760600190565b8051821015611e585760209160051b010190565b818110612d79575050565b60008155600101612d6e565b90601f8211612d92575050565b6117ae91601b6000527f3ad8aa4f87544323a9d1e5dd902f40c356527a7955687113db5f9a85ad579dc1906020601f840160051c83019310612ddc575b601f0160051c0190612d6e565b9091508190612dcf565b90601f8211612df3575050565b6117ae91601c6000527f0e4562a10381dec21b205ed72637e6b1b523bdd0e4d4d50af5cd23dd4500a211906020601f840160051c83019310612ddc57601f0160051c0190612d6e565b9190601f8111612e4b57505050565b6117ae926000526020600020906020601f840160051c83019310612ddc57601f0160051c0190612d6e565b919091828114612f5f57612e8a8354611065565b67ffffffffffffffff811161054057612ead81612ea78454611065565b84612e3c565b600093601f8211600114612ee8579381929394600092612edd575b50506000198260011b9260031b1c1916179055565b015490503880612ec8565b612efc601f19831691600052602060002090565b94612f0c84600052602060002090565b91815b818110612f4757509583600195969710612f2e575b505050811b019055565b015460001960f88460031b161c19169055388080612f24565b87830154845560019384019390920191602001612f0f565b509050565b600019811461132d5760010190565b906001600160a01b038083169081156128a75782600052600360205260406000205416612fdb8115159485613037575b612fc0816001600160a01b03166000526004602052604060002090565b60018154019055610a7a856000526003602052604060002090565b7fddf252ad1be2c89b69c2b068fc378daa952ba7f163c4a11628f55a4df523b3ef600080a461300657565b60246040517f73c6ac6e00000000000000000000000000000000000000000000000000000000815260006004820152fd5b61304085612a3f565b61305d836001600160a01b03166000526004602052604060002090565b6000198154019055612fa3565b9081602091031261042657516108a581611ce3565b6108a593926001600160a01b0360609316825260208201528160408201520190610854565b601154600d546040805167ffffffffffffffff60a084901c166020828101919091528082529094909390926001600160a01b0391821692600091906130e9908861057d565b613123604051978896879586947f4000aea0000000000000000000000000000000000000000000000000000000008652166004850161307f565b03925af180156107a1576131345750565b6131549060203d8111613157575b61314c818361057d565b81019061306a565b50565b503d613142565b6020613123916001600160a01b038060115416906014541691600060155493604051948686015285855261319185610545565b604051968795869485937f4000aea00000000000000000000000000000000000000000000000000000000085526004850161307f565b6040519060e0820182811067ffffffffffffffff82111761054057604052606060c08360008152600060208201526000604082015282808201528260808201528260a08201520152565b60409081519161322083610561565b600283528260005b82811061323457505050565b806060602080938501015201613228565b929060209267ffffffffffffffff9263ffffffff61329e60405197889687967f461d276200000000000000000000000000000000000000000000000000000000885216600487015260a0602487015260a4860190610854565b92600160448601521660648401526084830152038160006001600160a01b037f0000000000000000000000000000000000000000000000000000000000000000165af19081156107a15760009161331a575b50807f1131472297a800fee664d1d89cfa8f7676ff07189ecc53f80bbb5f4969099db8600080a290565b613332915060203d81116114da576114cc818361057d565b386132f0565b6040519061334582610545565b600c82527f636f64654c6f636174696f6e00000000000000000000000000000000000000006020830152565b7f4e487b7100000000000000000000000000000000000000000000000000000000600052602160045260246000fd5b600311156133aa57565b613371565b604051906133bc82610545565b600882527f6c616e67756167650000000000000000000000000000000000000000000000006020830152565b600111156133aa57565b604051906133ff82610545565b600682527f736f7572636500000000000000000000000000000000000000000000000000006020830152565b6040519061343882610545565b600482527f61726773000000000000000000000000000000000000000000000000000000006020830152565b6040519061347182610545565b600f82527f736563726574734c6f636174696f6e00000000000000000000000000000000006020830152565b604051906134aa82610545565b600782527f73656372657473000000000000000000000000000000000000000000000000006020830152565b604051906134e382610545565b600982527f62797465734172677300000000000000000000000000000000000000000000006020830152565b61351761378c565b90613529613523613338565b83613ec6565b6135468151613537816133a0565b613540816133a0565b8361384c565b6135516135236133af565b61356b6040820151613562816133e8565b613540816133e8565b6135766135236133f2565b613584606082015183613ec6565b60a081018051516136a1575b506080810190815151613609575b60c09150018051516135b1575b50515190565b916135bd6135236134d6565b6135c682613f4b565b60005b835180518210156135f657906135ec6135e5826135f194612d5a565b5185613e13565b612f64565b6135c9565b5050915061360381613fd7565b386135ab565b602081018051613618816133a0565b613621816133a0565b156136775760c09261365a6136729261364161363b613464565b88613ec6565b5161364b816133a0565b613654816133a0565b8661384c565b61366b61366561349d565b86613ec6565b5184613e13565b61359e565b60046040517fa80d31f7000000000000000000000000000000000000000000000000000000008152fd5b926136b36136ad61342b565b84613ec6565b6136bc83613f4b565b60005b845180518210156136e757906135ec6136db826136e294612d5a565b5186613ec6565b6136bf565b505092506136f482613fd7565b38613590565b815115613711576000808252604082015260600152565b60046040517f22ce3edd000000000000000000000000000000000000000000000000000000008152fd5b8151156137485760a00152565b60046040517ffe936cb7000000000000000000000000000000000000000000000000000000008152fd5b6040519061377f82610545565b6000602083606081520152565b60405161379881610545565b6137a0613772565b80825260208201600081526137b3613772565b506101006020830152604051809252600082526101208201918210610426576000916040525290565b90601f19820191821161132d57565b90600019820191821161132d57565b90613803613772565b50601f811680613832575b50806020830152604051908183526000825281016020019081106104265760405290565b6020036020811161132d57810180911161132d573861380e565b90815191613858613772565b50825151600181019081811161132d5760208501518110156138b1575b60c260206117ae96519283010153805182116138a9575b5050604051916020830152602082526138a482610545565b613e13565b52388061388c565b8160011b948286046002148315171561132d576020816138e36117ae986138dc60c2955191846137fa565b5082613d57565b5096505050613875565b6138f5613772565b50805151600181019081811161132d57602083015181101561392e575b605b6020845192830101538051821161392a57505090565b5290565b8160011b8281046002148315171561132d5761395790613950855191866137fa565b5084613d57565b50613912565b613965613772565b50805151600181019081811161132d57602083015181101561399a575b605a6020845192830101538051821161392a57505090565b8160011b8281046002148315171561132d576139bc90613950855191866137fa565b50613982565b6139ca613772565b50805151600181019081811161132d5760208301518110156139ff575b60596020845192830101538051821161392a57505090565b8160011b8281046002148315171561132d57613a2190613950855191866137fa565b506139e7565b613a2f613772565b50805151600181019081811161132d576020830151811015613a64575b60586020845192830101538051821161392a57505090565b8160011b8281046002148315171561132d57613a8690613950855191866137fa565b50613a4c565b613a94613772565b50805151600181019081811161132d576020830151811015613ac9575b607b6020845192830101538051821161392a57505090565b8160011b8281046002148315171561132d57613aeb90613950855191866137fa565b50613ab1565b613af9613772565b50805151600181019081811161132d576020830151811015613b2e575b607a6020845192830101538051821161392a57505090565b8160011b8281046002148315171561132d57613b5090613950855191866137fa565b50613b16565b613b5e613772565b50805151600181019081811161132d576020830151811015613b93575b60796020845192830101538051821161392a57505090565b8160011b8281046002148315171561132d57613bb590613950855191866137fa565b50613b7b565b613bc3613772565b50805151600181019081811161132d576020830151811015613bf8575b60786020845192830101538051821161392a57505090565b8160011b8281046002148315171561132d57613c1a90613950855191866137fa565b50613be0565b90613c29613772565b50815151600181019182821161132d576020840151821015613c5c575b6020845192830101538051821161392a57505090565b8260011b8381046002148415171561132d57613c8590613c7e865191876137fa565b5085613d57565b50613c46565b90613c98825191836137fa565b50613ca1613772565b508051613cac613772565b50613cba8251821115613e0c565b82515192613cc88285612d11565b926020938285809401518211613d40575b5183815197820101968211613d38575b505001915b80821015613d10579060001991036101000a0190811990511690825116179052565b909192613d2c613d26613d329286518152612d03565b94612d03565b926137dc565b90613cee565b523880613ce9565b613d52613d4c83612be1565b82613c8b565b613cd9565b90613d60613772565b50805190613d6c613772565b50613d7a8151831115613e0c565b82515191613d888184612d11565b6020928391828701518111613df5575b865183815197820101968211613ded575b505001915b80821015613dd1579060001991036101000a019081199051169082511617905290565b909192613d2c613d26613de79286518152612d03565b90613dae565b523880613da9565b613e07613e0182612be1565b88613c8b565b613d98565b1561042657565b815161315492919067ffffffffffffffff81169060178211613e4b57613e439150604060ff845192161790613c20565b505b51613d57565b5060ff8111613e7057613e6a90613e628351613a27565b5082516141f0565b50613e45565b61ffff8111613e8f57613e6a90613e8783516139c2565b50825161416c565b63ffffffff8111613eb057613e6a90613ea8835161395d565b5082516140e8565b613e6a90613ebe83516138ed565b508251614064565b815161315492919067ffffffffffffffff81169060178211613ef657613e439150606060ff845192161790613c20565b5060ff8111613f0d57613e6a90613e628351613bbb565b61ffff8111613f2457613e6a90613e878351613b56565b63ffffffff8111613f3d57613e6a90613ea88351613af1565b613e6a90613ebe8351613a8c565b805190613f56613772565b50815151600181019081811161132d576020840151811015613fa4575b609f6020809551928301015380518211613f9c575b5050018051906001820180921161132d5752565b523880613f88565b8160011b938285046002148315171561132d57602081613fcd82976138dc609f955191846137fa565b5095505050613f73565b805190613fe2613772565b50815151600181019081811161132d576020840151811015614031575b60ff6020809551928301015380518211614029575b505001805190600019820191821161132d5752565b523880614014565b8160011b938285046002148315171561132d5760208161405a82976138dc60ff955191846137fa565b5095505050613fff565b9061406d613772565b5081515180600801918260081161132d57602084015183116140c7575b6008845192830101907fffffffffffffffffffffffffffffffffffffffffffffffff00000000000000008251161790528051821161392a57505090565b8260011b8381046002148415171561132d576140e39085613c8b565b61408a565b906140f1613772565b5081515180600401918260041161132d576020840151831161414b575b6004845192830101907fffffffffffffffffffffffffffffffffffffffffffffffffffffffff000000008251161790528051821161392a57505090565b8260011b8381046002148415171561132d576141679085613c8b565b61410e565b90614175613772565b5081515180600201918260021161132d57602084015183116141cf575b6002845192830101907fffffffffffffffffffffffffffffffffffffffffffffffffffffffffffff00008251161790528051821161392a57505090565b8260011b8381046002148415171561132d576141eb9085613c8b565b614192565b906141f9613772565b5081515180600101918260011161132d5760208401518311614235575b60018451928301019060ff198251161790528051821161392a57505090565b8260011b8381046002148415171561132d576142519085613c8b565b614216565b90815167ffffffffffffffff81116105405761427c81614277601c54611065565b612de6565b602080601f83116001146142b757508192936000926142ac575b50506000198260011b9260031b1c191617601c55565b015190503880614296565b90601f198316946142ea601c6000527f0e4562a10381dec21b205ed72637e6b1b523bdd0e4d4d50af5cd23dd4500a21190565b926000905b87821061432757505083600195961061430e575b505050811b01601c55565b015160001960f88460031b161c19169055388080614303565b806001859682949686015181550195019301906142ef565b6040519061434c82610545565b600d82527f696e76616c696420696e707574000000000000000000000000000000000000006020830152565b919091825167ffffffffffffffff81116105405761439a81612ea78454611065565b602080601f83116001146143d45750819293946000926143c95750506000198260011b9260031b1c1916179055565b015190503880612ec8565b90601f198316956143ea85600052602060002090565b926000905b8882106144265750508360019596971061440d57505050811b019055565b015160001960f88460031b161c19169055388080612f24565b806001859682949686015181550195019301906143ef565b6020613123916001600160a01b038060115416906016541691600067ffffffffffffffff6018541693604051948686015285855261319185610545565b604051906080820182811067ffffffffffffffff82111761054057604052600382526060366020840137565b604051906144b482610561565b600282526040366020840137565b60209081818403126104265780519067ffffffffffffffff821161042657019180601f840112156104265782516144f881610e94565b93614506604051958661057d565b818552838086019260051b820101928311610426578301905b82821061452d575050505090565b8151815290830190830161451f565b90815180825260208080930193019160005b82811061455c575050505090565b83516001600160a01b03168552938101939281019260010161454e565b916080936145a6916001600160a01b0393989796988552602085015260a0604085015260a084019061453c565b951660608201520152565b6145c661073a6012546001600160a01b031690565b6145db61073a6011546001600160a01b031690565b6040517f70a0823100000000000000000000000000000000000000000000000000000000815230600482015290602082602481865afa9283156107a1576146b39360009384916146e0575b50614662614635828585614715565b936146596146416144a7565b9461464b86612d2d565b906001600160a01b03169052565b61464b84612d3a565b8361467861073a6013546001600160a01b031690565b92604051968795869485937f38ed17390000000000000000000000000000000000000000000000000000000085524292309260048701614579565b03925af180156107a1576146c45750565b613154903d806000833e6146d8818361057d565b8101906144c2565b6146f8915060203d81116114da576114cc818361057d565b38614626565b6040906108a593928152816020820152019061453c565b90916147ba9261473061073a6012546001600160a01b031690565b6001600160a01b03808216808287161491821561483f575b50501561480557509160009161476f614659946147636144a7565b95869461464b86612d2d565b61478461073a6013546001600160a01b031690565b906040518096819482937fd06ca61f000000000000000000000000000000000000000000000000000000008452600484016146fe565b03915afa9081156107a1576147e2926000926147e6575b506147dc90516137eb565b90612d5a565b5190565b6147fe906147dc92933d8091833e6146d8818361057d565b91906147d1565b9161483a614828949261483160009561481c61447b565b97889661464b88612d2d565b61464b86612d3a565b61464b84612d4a565b61476f565b84161490503880614748565b61486061073a6011546001600160a01b031690565b6040517f70a0823100000000000000000000000000000000000000000000000000000000815230600482015290602090829060249082905afa80156107a15760059160009161491e575b50046148b5816130a4565b6148be8161315e565b6148c78161443e565b6148f56148dc600a546001600160a01b031690565b6001600160a01b0316600052600c602052604060002090565b614900828254612d11565b905561491a6122ee6148dc600b546001600160a01b031690565b9055565b614936915060203d81116114da576114cc818361057d565b386148aa565b90614945612667565b600091825b81518110156149c65761495d8183612d5a565b519060099182546801000000000000000081101561054057614986906001948582019055611e21565b61499a579061499491614378565b0161494a565b6024877f4e487b7100000000000000000000000000000000000000000000000000000000815280600452fd5b5050905056fea26469706673582212206cccd10a011f7b5db3ec94e65f17d4e71a1f0b8f5149ee80937334791555c37564736f6c63430008140033405787fa12a823e0f2b7631cc41b3ba8828b3321ca811111fa75cd3aa3bb5ace6e1540171b6c0c960b71a7020d9f60077f6af931a8bbf590da0223dacf75c7afb10e2d527612073b26eecdfd717e6a320cf44b4afac2b0732d9fcbe2b7fa0cf6c624b66cc0138b8fabc209247f72d758e1cf3343756d543badbf24212bed8c15",
  "devdoc": {
    "errors": {
      "ERC721IncorrectOwner(address,uint256,address)": [
        {
          "details": "Indicates an error related to the ownership over a particular token. Used in transfers.",
          "params": {
            "owner": "Address of the current owner of a token.",
            "sender": "Address whose tokens are being transferred.",
            "tokenId": "Identifier number of a token."
          }
        }
      ],
      "ERC721InsufficientApproval(address,uint256)": [
        {
          "details": "Indicates a failure with the `operator`s approval. Used in transfers.",
          "params": {
            "operator": "Address that may be allowed to operate on tokens without being their owner.",
            "tokenId": "Identifier number of a token."
          }
        }
      ],
      "ERC721InvalidApprover(address)": [
        {
          "details": "Indicates a failure with the `approver` of a token to be approved. Used in approvals.",
          "params": {
            "approver": "Address initiating an approval operation."
          }
        }
      ],
      "ERC721InvalidOperator(address)": [
        {
          "details": "Indicates a failure with the `operator` to be approved. Used in approvals.",
          "params": {
            "operator": "Address that may be allowed to operate on tokens without being their owner."
          }
        }
      ],
      "ERC721InvalidOwner(address)": [
        {
          "details": "Indicates that an address can't be an owner. For example, `address(0)` is a forbidden owner in EIP-20. Used in balance queries.",
          "params": {
            "owner": "Address of the current owner of a token."
          }
        }
      ],
      "ERC721InvalidReceiver(address)": [
        {
          "details": "Indicates a failure with the token `receiver`. Used in transfers.",
          "params": {
            "receiver": "Address to which tokens are being transferred."
          }
        }
      ],
      "ERC721InvalidSender(address)": [
        {
          "details": "Indicates a failure with the token `sender`. Used in transfers.",
          "params": {
            "sender": "Address whose tokens are being transferred."
          }
        }
      ],
      "ERC721NonexistentToken(uint256)": [
        {
          "details": "Indicates a `tokenId` whose `owner` is the zero address.",
          "params": {
            "tokenId": "Identifier number of a token."
          }
        }
      ],
      "OwnableInvalidOwner(address)": [
        {
          "details": "The owner is not a valid owner account. (eg. `address(0)`)"
        }
      ],
      "OwnableUnauthorizedAccount(address)": [
        {
          "details": "The caller account is not authorized to perform an operation."
        }
      ]
    },
    "events": {
      "Approval(address,address,uint256)": {
        "details": "Emitted when `owner` enables `approved` to manage the `tokenId` token."
      },
      "ApprovalForAll(address,address,bool)": {
        "details": "Emitted when `owner` enables or disables (`approved`) `operator` to manage all of its assets."
      },
      "Transfer(address,address,uint256)": {
        "details": "Emitted when `tokenId` token is transferred from `from` to `to`."
      }
    },
    "kind": "dev",
    "methods": {
      "approve(address,uint256)": {
        "details": "See {IERC721-approve}."
      },
      "balanceOf(address)": {
        "details": "See {IERC721-balanceOf}."
      },
      "getApproved(uint256)": {
        "details": "See {IERC721-getApproved}."
      },
      "handleOracleFulfillment(bytes32,bytes,bytes)": {
        "details": "Either response or error parameter will be set, but never both.",
        "params": {
          "err": "Aggregated error either from the request's source code or from the execution pipeline.",
          "requestId": "The requestId returned by FunctionsClient.sendRequest().",
          "response": "Aggregated response from the request's source code."
        }
      },
      "isApprovedForAll(address,address)": {
        "details": "See {IERC721-isApprovedForAll}."
      },
      "name()": {
        "details": "See {IERC721Metadata-name}."
      },
      "owner()": {
        "details": "Returns the address of the current owner."
      },
      "ownerOf(uint256)": {
        "details": "See {IERC721-ownerOf}."
      },
      "renounceOwnership()": {
        "details": "Leaves the contract without owner. It will not be possible to call `onlyOwner` functions. Can only be called by the current owner. NOTE: Renouncing ownership will leave the contract without an owner, thereby disabling any functionality that is only available to the owner."
      },
      "safeTransferFrom(address,address,uint256)": {
        "details": "See {IERC721-safeTransferFrom}."
      },
      "safeTransferFrom(address,address,uint256,bytes)": {
        "details": "See {IERC721-safeTransferFrom}."
      },
      "setApprovalForAll(address,bool)": {
        "details": "See {IERC721-setApprovalForAll}."
      },
      "supportsInterface(bytes4)": {
        "details": "See {IERC165-supportsInterface}."
      },
      "symbol()": {
        "details": "See {IERC721Metadata-symbol}."
      },
      "transferFrom(address,address,uint256)": {
        "details": "See {IERC721-transferFrom}."
      },
      "transferOwnership(address)": {
        "details": "Transfers ownership of the contract to a new account (`newOwner`). Can only be called by the current owner."
      }
    },
    "version": 1
  },
  "userdoc": {
    "kind": "user",
    "methods": {
      "handleOracleFulfillment(bytes32,bytes,bytes)": {
        "notice": "Chainlink Functions response handler called by the Functions Router during fullilment from the designated transmitter node in an OCR round."
      }
    },
    "version": 1
  },
  "storageLayout": {
    "storage": [
      {
        "astId": 2606,
        "contract": "contracts/MagisterMilitum.sol:MagisterMilitum",
        "label": "_owner",
        "offset": 0,
        "slot": "0",
        "type": "t_address"
      },
      {
        "astId": 2915,
        "contract": "contracts/MagisterMilitum.sol:MagisterMilitum",
        "label": "_name",
        "offset": 0,
        "slot": "1",
        "type": "t_string_storage"
      },
      {
        "astId": 2917,
        "contract": "contracts/MagisterMilitum.sol:MagisterMilitum",
        "label": "_symbol",
        "offset": 0,
        "slot": "2",
        "type": "t_string_storage"
      },
      {
        "astId": 2921,
        "contract": "contracts/MagisterMilitum.sol:MagisterMilitum",
        "label": "_owners",
        "offset": 0,
        "slot": "3",
        "type": "t_mapping(t_uint256,t_address)"
      },
      {
        "astId": 2925,
        "contract": "contracts/MagisterMilitum.sol:MagisterMilitum",
        "label": "_balances",
        "offset": 0,
        "slot": "4",
        "type": "t_mapping(t_address,t_uint256)"
      },
      {
        "astId": 2929,
        "contract": "contracts/MagisterMilitum.sol:MagisterMilitum",
        "label": "_tokenApprovals",
        "offset": 0,
        "slot": "5",
        "type": "t_mapping(t_uint256,t_address)"
      },
      {
        "astId": 2935,
        "contract": "contracts/MagisterMilitum.sol:MagisterMilitum",
        "label": "_operatorApprovals",
        "offset": 0,
        "slot": "6",
        "type": "t_mapping(t_address,t_mapping(t_address,t_bool))"
      },
      {
        "astId": 5670,
        "contract": "contracts/MagisterMilitum.sol:MagisterMilitum",
        "label": "tokenCounter",
        "offset": 0,
        "slot": "7",
        "type": "t_uint256"
      },
      {
        "astId": 5674,
        "contract": "contracts/MagisterMilitum.sol:MagisterMilitum",
        "label": "tokenUris",
        "offset": 0,
        "slot": "8",
        "type": "t_mapping(t_uint256,t_string_storage)"
      },
      {
        "astId": 5677,
        "contract": "contracts/MagisterMilitum.sol:MagisterMilitum",
        "label": "generalUris",
        "offset": 0,
        "slot": "9",
        "type": "t_array(t_string_storage)dyn_storage"
      },
      {
        "astId": 5679,
        "contract": "contracts/MagisterMilitum.sol:MagisterMilitum",
        "label": "beneficiary1",
        "offset": 0,
        "slot": "10",
        "type": "t_address"
      },
      {
        "astId": 5681,
        "contract": "contracts/MagisterMilitum.sol:MagisterMilitum",
        "label": "beneficiary2",
        "offset": 0,
        "slot": "11",
        "type": "t_address"
      },
      {
        "astId": 5685,
        "contract": "contracts/MagisterMilitum.sol:MagisterMilitum",
        "label": "proceeds",
        "offset": 0,
        "slot": "12",
        "type": "t_mapping(t_address,t_uint256)"
      },
      {
        "astId": 5695,
        "contract": "contracts/MagisterMilitum.sol:MagisterMilitum",
        "label": "vrfCoordinator",
        "offset": 0,
        "slot": "13",
        "type": "t_contract(VRFCoordinatorV2Interface)1163"
      },
      {
        "astId": 5697,
        "contract": "contracts/MagisterMilitum.sol:MagisterMilitum",
        "label": "vrfSubscriptionId",
        "offset": 20,
        "slot": "13",
        "type": "t_uint64"
      },
      {
        "astId": 5699,
        "contract": "contracts/MagisterMilitum.sol:MagisterMilitum",
        "label": "keyHash",
        "offset": 0,
        "slot": "14",
        "type": "t_bytes32"
      },
      {
        "astId": 5701,
        "contract": "contracts/MagisterMilitum.sol:MagisterMilitum",
        "label": "requestConfirmations",
        "offset": 0,
        "slot": "15",
        "type": "t_uint16"
      },
      {
        "astId": 5703,
        "contract": "contracts/MagisterMilitum.sol:MagisterMilitum",
        "label": "callbackGasLimit",
        "offset": 2,
        "slot": "15",
        "type": "t_uint32"
      },
      {
        "astId": 5706,
        "contract": "contracts/MagisterMilitum.sol:MagisterMilitum",
        "label": "numWords",
        "offset": 6,
        "slot": "15",
        "type": "t_uint32"
      },
      {
        "astId": 5710,
        "contract": "contracts/MagisterMilitum.sol:MagisterMilitum",
        "label": "vrfRrequests",
        "offset": 0,
        "slot": "16",
        "type": "t_mapping(t_uint256,t_address)"
      },
      {
        "astId": 5713,
        "contract": "contracts/MagisterMilitum.sol:MagisterMilitum",
        "label": "linkToken",
        "offset": 0,
        "slot": "17",
        "type": "t_contract(LinkTokenInterface)1258"
      },
      {
        "astId": 5716,
        "contract": "contracts/MagisterMilitum.sol:MagisterMilitum",
        "label": "weth",
        "offset": 0,
        "slot": "18",
        "type": "t_contract(IWETH)5604"
      },
      {
        "astId": 5719,
        "contract": "contracts/MagisterMilitum.sol:MagisterMilitum",
        "label": "uniswapRouter",
        "offset": 0,
        "slot": "19",
        "type": "t_contract(IUniswapV2Router)5557"
      },
      {
        "astId": 5721,
        "contract": "contracts/MagisterMilitum.sol:MagisterMilitum",
        "label": "automationRegistry",
        "offset": 0,
        "slot": "20",
        "type": "t_address"
      },
      {
        "astId": 5723,
        "contract": "contracts/MagisterMilitum.sol:MagisterMilitum",
        "label": "automationSubscriptionId",
        "offset": 0,
        "slot": "21",
        "type": "t_uint256"
      },
      {
        "astId": 5725,
        "contract": "contracts/MagisterMilitum.sol:MagisterMilitum",
        "label": "functionsRouter",
        "offset": 0,
        "slot": "22",
        "type": "t_address"
      },
      {
        "astId": 5728,
        "contract": "contracts/MagisterMilitum.sol:MagisterMilitum",
        "label": "source",
        "offset": 0,
        "slot": "23",
        "type": "t_string_storage"
      },
      {
        "astId": 5730,
        "contract": "contracts/MagisterMilitum.sol:MagisterMilitum",
        "label": "functionsSubscriptionId",
        "offset": 0,
        "slot": "24",
        "type": "t_uint64"
      },
      {
        "astId": 5732,
        "contract": "contracts/MagisterMilitum.sol:MagisterMilitum",
        "label": "gasLimit",
        "offset": 8,
        "slot": "24",
        "type": "t_uint32"
      },
      {
        "astId": 5734,
        "contract": "contracts/MagisterMilitum.sol:MagisterMilitum",
        "label": "donID",
        "offset": 0,
        "slot": "25",
        "type": "t_bytes32"
      },
      {
        "astId": 5738,
        "contract": "contracts/MagisterMilitum.sol:MagisterMilitum",
        "label": "functionsRequests",
        "offset": 0,
        "slot": "26",
        "type": "t_mapping(t_uint256,t_uint256)"
      },
      {
        "astId": 5740,
        "contract": "contracts/MagisterMilitum.sol:MagisterMilitum",
        "label": "lastResponse",
        "offset": 0,
        "slot": "27",
        "type": "t_bytes_storage"
      },
      {
        "astId": 5742,
        "contract": "contracts/MagisterMilitum.sol:MagisterMilitum",
        "label": "lastError",
        "offset": 0,
        "slot": "28",
        "type": "t_bytes_storage"
      }
    ],
    "types": {
      "t_address": {
        "encoding": "inplace",
        "label": "address",
        "numberOfBytes": "20"
      },
      "t_array(t_string_storage)dyn_storage": {
        "base": "t_string_storage",
        "encoding": "dynamic_array",
        "label": "string[]",
        "numberOfBytes": "32"
      },
      "t_bool": {
        "encoding": "inplace",
        "label": "bool",
        "numberOfBytes": "1"
      },
      "t_bytes32": {
        "encoding": "inplace",
        "label": "bytes32",
        "numberOfBytes": "32"
      },
      "t_bytes_storage": {
        "encoding": "bytes",
        "label": "bytes",
        "numberOfBytes": "32"
      },
      "t_contract(IUniswapV2Router)5557": {
        "encoding": "inplace",
        "label": "contract IUniswapV2Router",
        "numberOfBytes": "20"
      },
      "t_contract(IWETH)5604": {
        "encoding": "inplace",
        "label": "contract IWETH",
        "numberOfBytes": "20"
      },
      "t_contract(LinkTokenInterface)1258": {
        "encoding": "inplace",
        "label": "contract LinkTokenInterface",
        "numberOfBytes": "20"
      },
      "t_contract(VRFCoordinatorV2Interface)1163": {
        "encoding": "inplace",
        "label": "contract VRFCoordinatorV2Interface",
        "numberOfBytes": "20"
      },
      "t_mapping(t_address,t_bool)": {
        "encoding": "mapping",
        "key": "t_address",
        "label": "mapping(address => bool)",
        "numberOfBytes": "32",
        "value": "t_bool"
      },
      "t_mapping(t_address,t_mapping(t_address,t_bool))": {
        "encoding": "mapping",
        "key": "t_address",
        "label": "mapping(address => mapping(address => bool))",
        "numberOfBytes": "32",
        "value": "t_mapping(t_address,t_bool)"
      },
      "t_mapping(t_address,t_uint256)": {
        "encoding": "mapping",
        "key": "t_address",
        "label": "mapping(address => uint256)",
        "numberOfBytes": "32",
        "value": "t_uint256"
      },
      "t_mapping(t_uint256,t_address)": {
        "encoding": "mapping",
        "key": "t_uint256",
        "label": "mapping(uint256 => address)",
        "numberOfBytes": "32",
        "value": "t_address"
      },
      "t_mapping(t_uint256,t_string_storage)": {
        "encoding": "mapping",
        "key": "t_uint256",
        "label": "mapping(uint256 => string)",
        "numberOfBytes": "32",
        "value": "t_string_storage"
      },
      "t_mapping(t_uint256,t_uint256)": {
        "encoding": "mapping",
        "key": "t_uint256",
        "label": "mapping(uint256 => uint256)",
        "numberOfBytes": "32",
        "value": "t_uint256"
      },
      "t_string_storage": {
        "encoding": "bytes",
        "label": "string",
        "numberOfBytes": "32"
      },
      "t_uint16": {
        "encoding": "inplace",
        "label": "uint16",
        "numberOfBytes": "2"
      },
      "t_uint256": {
        "encoding": "inplace",
        "label": "uint256",
        "numberOfBytes": "32"
      },
      "t_uint32": {
        "encoding": "inplace",
        "label": "uint32",
        "numberOfBytes": "4"
      },
      "t_uint64": {
        "encoding": "inplace",
        "label": "uint64",
        "numberOfBytes": "8"
      }
    }
  }
}